:020000040800F2
:10000000C0080020252E0008E1030008E3030008D3
:10001000E7030008EB030008EF03000800000000FE
:10002000000000000000000000000000F3030008D2
:10003000F503000800000000F7030008F9030008BA
:100040003F2E00083F2E00083F2E00083F2E0008DC
:100050003F2E00083F2E00083F2E00083F2E0008CC
:100060003F2E00083F2E0008FB0300083F2E00082B
:100070003F2E00083F2E0008110400083F2E000804
:100080003F2E00083F2E00083F2E00083F2E00089C
:100090003F2E00083F2E00083F2E00083F2E00088C
:1000A0003F2E00083F2E00083F2E00083F2E00087C
:1000B000C10D00083F2E00083F2E00083F2E00080B
:1000C0003F2E00083F2E00083F2E00083F2E00085C
:1000D0003F2E0008FF0600083F2E00083F2E0008B4
:1000E0003F2E00083F2E00083F2E0008DFF810D0FA
:1000F00002F0EEFE004800479F010008AFF30080C9
:10010000C008002010B5002000F0E2FB012000F044
:10011000DFFB022000F0DCFB032000F0D9FB042011
:1001200000F0D6FB052000F0D3FB062000F0D0FB4A
:10013000072000F0CDFB322000F09BFC002000F0F7
:1001400013FC002000F06BFC012000F00DFC0120EE
:1001500000F065FC022000F007FC022000F05FFCCC
:10016000032000F001FC032000F059FC042000F003
:10017000FBFB042000F053FC052000F0F5FB0520FC
:1001800000F04DFC062000F0EFFB062000F047FCDD
:10019000072000F0E9FB072000F041FC10BD00F053
:1001A000F1F9322000F065FC962000F062FC00F0CE
:1001B00083FEFFF7A7FF00F023FF00F03CFF13E0F2
:1001C00000F002FA0948007808B100F007FD02F0DB
:1001D000E8FC0748007838B106A002F0D5FEFFF72A
:1001E00091FF002002490870EAE700001500002096
:1001F000140000206572726F72206F636375720065
:100200000CB50020019000906C48006840F48030EC
:100210006A49086000BF6948006800F40030009037
:100220000198401C0190009818B90198B0F5A06F92
:10023000F1D16248006800F4003010B10120009054
:1002400001E0002000900098012843D15C4800683C
:1002500040F010005A4908600846006820F003008A
:1002600008600846006840F0020008605348406893
:10027000524948600846406848600846406840F473
:10028000806048600846406820F47C10486008465A
:10029000406840F4E81048600846006840F080700C
:1002A000086000BF4548006800F000700028F9D0E1
:1002B0004248406820F003004049486008464068D2
:1002C00040F00200486000BF3C48406800F00C006D
:1002D0000828F9D10CBD10B5FFF792FF10BD10B57D
:1002E0003648006840F0010034490860084640681C
:1002F000344908403149486008460068324908409E
:100300002E4908600846006820F4802008600846EE
:10031000406820F4FE0048604FF41F008860FFF73B
:10032000DAFF4FF000602949086010BD10B50021C8
:1003300000200022214B5B6803F00C0121B104294D
:1003400006D0082928D107E0214B224C236027E062
:100350001F4B204C236023E0184B5B6803F47010A4
:10036000164B5B6803F48032022303EB904022B902
:10037000194B4343174C23600DE0104B5B6803F4AB
:10038000003323B1144B4343124C236003E0104B62
:100390004343104C236003E00D4B0E4C236000BF21
:1003A00000BF064B5B68C3F303130C4CE15C094BC5
:1003B0001B68CB40074C236010BD000000100240BA
:1003C000002002400000FFF8FFFFF6FE08ED00E00D
:1003D00000127A002000002000093D0024000020C7
:1003E000704700BFFEE700BFFEE700BFFEE700BFAB
:1003F000FEE7704770477047704710B5102001F056
:100400009FFC20B1102001F0ACFC00F01FFC10BDDF
:1004100010B54FF4005002F0E2FC58B14FF4005018
:1004200002F0F1FC0021054802F09FFC0020034986
:100430004439886401200249087010BD440002401C
:100440001E00002000B58BB00121084601F093FB8F
:10045000F94802F0BDFBF9480090F94801901020DE
:10046000029000010390002004908020059000205D
:100470000690079008904FF44050099000200A9091
:100480006946ED4802F046FC01228021EB48001F3E
:1004900000F0F0FE0121E84802F067FC0122022191
:1004A000E54802F06EFC0BB000BD08B500214FF02E
:1004B000006001F01AF84FF4A06000F0DFFF252083
:1004C0008DF8000001208DF801008DF802008DF8F4
:1004D0000300684600F0D7FF0E208DF800000020D2
:1004E0008DF8010003208DF8020001208DF8030033
:1004F000684600F0C8FF08BD1FB50121880301F060
:1005000047FB4FF4E13000900020ADF80400ADF857
:100510000600ADF808000C20ADF80A000020ADF888
:100520000C006946C548001F00F0E7FD0121C348E3
:10053000001F00F06EFE012240F22551BF48001F4F
:1005400000F073FE1FBD08B50121042001F020FB5F
:100550004FF48060ADF8000003208DF80200042005
:100560008DF803006946B74801F056F84FF4007063
:10057000ADF8000018208DF803006946B14801F07D
:100580004BF808BD10B5FFF7DEFFFFF7B5FFFFF72B
:100590008CFFFFF757FF10BD70B505460E460024CF
:1005A00000BF0EE0295DA548001F00F09FFE00BFC0
:1005B0004021A248001F00F007FF0028F8D0601C6F
:1005C000C4B2B442EEDB70BD10B59F48008800F4A1
:1005D000004000287DD09C48007800F03F009B49F7
:1005E00008709B4880789B4908709948C0789A4960
:1005F000087096480078252802DA0020974908708C
:10060000002091490880954908700CE09048934972
:100610000978405C9249914A127888548F48007852
:10062000401C8E4908708D480078884909788842B6
:10063000ECDB8B48007855281DD189484078AA28E2
:1006400019D10020854908700DE085488349097853
:10065000405C844909780844824908707F480078E2
:10066000401C7E49087079480078401E7B49097813
:100670008842EADC05E000207A4908707249088067
:1006800010BD7848007871490978491E744A515C58
:10069000884225D10420744908700DE070487249E1
:1006A0000978415C70480078001F704A11546E4808
:1006B0000078401C6C49087064480078401E6A4904
:1006C00009788842EADC6448027868496148007821
:1006D00000E012E000F06CF900206249087005E0CB
:1006E0000020594908805F490870C9E75348001F36
:1006F0000088C4B251480088C4B200BFC0E710B53A
:100700005148008848B90121880701F063FF4FF084
:10071000804002F016FA5649088040F225514748B9
:10072000001F00F067FE002858D04448001F00F06A
:10073000E1FDC4B240F225514048001F00F084FEA4
:100740004148008800F40040002847D13E48008816
:1007500000F4804040B30A2C03D000203A490880BE
:1007600005E03948008840F40040374908800021FE
:100770004FF0804001F02EFF4FF0804002F0E1F991
:100780003C4908800846008839490988401A3A4996
:10079000088000214FF0804002F0B0F9364801880F
:1007A00036A002F0F1FB19E00D2C06D12648008896
:1007B00040F480402449088010E023480088C0F3BA
:1007C0000D0023490C5420480088401C1E49088015
:1007D000084600887F2801DD0020088010BD70B524
:1007E00004460D46E1B21548001F00F07FFD00BF32
:1007F00040211248001F00F0E7FD0028F8D02046F5
:1008000070BD70B504460D4600210B4802F0ADFAEC
:100810002A4621460A4802F017FB00BF064802F0AC
:10082000BBFA0028FAD12946034802F0B3FA0121A5
:10083000014802F09AFA70BD4400024004380140B9
:100840004001002000080140340000203B0000204F
:10085000400200203D0000203E0000203A00002021
:10086000C00200203C00002039000020400300208E
:1008700042000020440000204000002052656365D3
:100880006976652074696D653A202564207573204A
:100890000A00000070B50446FC49095D41F0020001
:1008A00000F071FB0546284670BD10B50446F749B7
:1008B000095D41F00100402100F015FB10BD10B5AD
:1008C000F249097841F00100602100F00CFB10BDF5
:1008D00010B50446ED49095D41F00100802100F0AA
:1008E00002FB10BD10B50446E849095D41F0030064
:1008F000032100F0F8FAE549095D41F00200C72143
:1009000000F0F1FA10BD2DE9F04104460E46002535
:10091000DE49095D41F0030000F035FB054645F076
:100920008005DA49095D41F00300294600F0DBFA51
:100930004FF4E130B0FBF6F087B2F9B2D34A105D64
:1009400000F0D1FA3912D14A125D42F0010000F0F4
:10095000CAFA05F07F05CD49095D41F0030029463B
:1009600000F0C1FABDE8F08110B50446032C02D0B6
:10097000052C12D108E04FF496412046FFF7C3FF43
:100980002046FFF7AFFF11E04FF496512046FFF7E6
:10099000BAFF2046FFF7A6FF08E04FF49641204635
:1009A000FFF7B1FF2046FFF79DFF00BF00BF10BD5E
:1009B00070B506460C46154607E014F8011BB34A0D
:1009C000905D00F090FA681EC5B2002DF5D170BDA3
:1009D0002DE9F04104460D4600262F4600BFAB49E5
:1009E000095D41F0050000F0CEFA00F0010000289A
:1009F000F5D007E0A549085D00F0C5FA38707F1C06
:100A0000701CC6B2A149095D41F0050000F0BBFAB7
:100A100000F001000028EDD13046BDE8F08110B5AE
:100A200004469A49095D41F00100052100F05BFA96
:100A30009649095D41F00400082100F054FA10BD08
:100A400010B5002408E09149095D41F00100002142
:100A500000F049FA601CC4B2072CF4DD10BD10B5DB
:100A600004468A49095D41F004002A2100F03BFA5E
:100A700010BD10B5014609E0C82203E0DC1CE3B25A
:100A8000541EE2B2002AF9D14C1EE1B20029F3D182
:100A900010BD70B504467D48015D7DA002F074FA7A
:100AA0007A49095D41F0010000F06DFA05462946DA
:100AB0007FA002F069FA7549095D41F0020000F07B
:100AC00062FA054629467DA002F05EFA6F49095D8B
:100AD00041F0030000F057FA054629467AA002F0DB
:100AE00053FA6A49095D41F0040000F04CFA0546EA
:100AF000294678A002F048FA6449095D41F00500F2
:100B000000F041FA0546294675A002F03DFA5F491A
:100B1000095D41F0060000F036FA0546294673A04B
:100B200002F032FA5949095D41F00700782100F0DE
:100B3000DAF95649095D41F0070000F024FA05464C
:100B400029466DA002F020FA70BD10B50446FFF7EB
:100B500077FF2046FFF763FF00BF10BD2DE9F0418E
:100B600004460D46002604F1070808F0FF00114670
:100B70009C464FF0AA0881F80080491C4FF05508A8
:100B800081F80080491C0D70491C0C70491CA5F1AE
:100B90000108A04408F0FF0600270FE09CF8008041
:100BA00081F8008091F80080B04408F0FF06491CED
:100BB0000CF1010C07F1010808F0FF07A742EDDB7B
:100BC0000E70491C4FF00D0881F80080491C4FF051
:100BD0000A0881F80080491CBDE8F08110B5494839
:100BE00000781E2803DA002447A002F0CDF94A4B12
:100BF0004A4A4B48017843480078FFF7AFFF49491C
:100C0000087000214FF0804001F0E4FC4FF080407C
:100C100001F097FF44490880084600884349098845
:100C2000401A434908800121880701F0D3FC4FF0A6
:100C3000804001F086FF3D4908803A4801783748F6
:100C4000FFF7DFFD00203B49087010BD70B54F2055
:100C500000F099F9054605B970BD0024ABE03648AF
:100C6000005D2840002869D00849095D41F0020074
:100C700000F089F900F00F06042E78D05FDC26B171
:100C8000012E61D0022E71D15FE089E01E34000890
:100C900063757272656E7420746573742073657207
:100CA000696C6E756D3A20253032780A00000000BC
:100CB0004945523A20253032780A00004949523AD3
:100CC00020253032780A00004C43523A2025303239
:100CD000780A00004D43523A20253032780A00004D
:100CE0004C53523A20253032780A00004D53523A84
:100CF00020253032780A00005343523A2025303202
:100D0000780A0000210100206C656E677468206518
:100D100072726F7200000000C003002040040020C7
:100D20002301002022010020440000204200002076
:100D300040000020150000202634000839E0062E6F
:100D400024D00C2E33D101E032E031E01F4800788E
:100D500050B91F492046FFF73BFE1E4908701E4848
:100D6000047001201949087076E700E01FE0174879
:100D7000007850B916492046FFF72AFE1549087039
:100D80001548047001201149087065E71349095D91
:100D900041F0050000F0F7F801201149087007E064
:100DA0000E49095D41F0060000F0EDF800E000BFDB
:100DB00000BF601CC4B2082CFFF651AF00BF4BE768
:100DC00010B50121880701F0CEFE10BD15000020EE
:100DD000C003002021010020230100201E34000850
:100DE0001400002010B545F2555001F0D1FE04204A
:100DF00001F0D1FE41F2883001F0D0FE01F0D1FEC9
:100E000001F0D4FE10BD08B500214FF0006000F0E5
:100E10006CFB4FF4A06000F031FB0A208DF800005D
:100E200001208DF8010000208DF8020001208DF8CE
:100E30000300684600F027FB08BD08B50121082023
:100E400000F0A6FE0121082000F0A2FE4FF47F4032
:100E5000ADF8000003208DF8020004208DF8030097
:100E60006946834800F0D8FB6320ADF800001020ED
:100E70008DF8030069467E4800F0CEFB1020ADF8E7
:100E8000000003208DF8020048208DF80300694619
:100E9000774800F0C1FB4021754800F06CFC202130
:100EA000734800F066FC0121714800F062FC0221E9
:100EB0006F4800F05EFC08BD10B5FFF7BEFFFFF7FE
:100EC000A2FFFFF78FFF10BD38B50446ADF8004014
:100ED00003208DF8020010208DF803006946644855
:100EE00000F09AFB38BD70B504460D4620216048DD
:100EF00000F03FFC01215E4800F03BFC02215C4811
:100F000000F037FC4FF47F40FFF7DEFF584800F059
:100F10002CFCC6B246EA0421554800F033FC0022FE
:100F20002021534800F029FC01224021504800F0C4
:100F300024FC002240214E4800F01FFC4C4800F0E9
:100F400014FCC6B246EA0521494800F01BFC012109
:100F5000474800F010FC0121454800F00AFC202120
:100F6000434800F006FC70BD38B50446ADF80040BB
:100F700003208DF8020048208DF8030069463C48A4
:100F800000F04AFB38BD70B504462021384800F017
:100F9000F0FB0121364800F0ECFB0221344800F060
:100FA000E8FB4FF47F40FFF78FFF314800F0DDFB97
:100FB000C5B245EA04212E4800F0E4FB20212C486C
:100FC00000F0D9FB40212A4800F0D3FB40212848FB
:100FD00000F0D1FB4FF47F40FFF7C6FF0221244809
:100FE00000F0C9FB224800F0B3FB051202212048A3
:100FF00000F0BFFB20211E4800F0BBFB284670BD5F
:101000001CB50121084600F0C3FD0421012000F0B9
:1010100019FC1020009000208DF804000C208DF8A1
:10102000050001208DF80600684600F023FE102020
:1010300000F097FE1CBD0EB50121084600F0B5FD7D
:1010400041F28830ADF804004720ADF800000020E0
:10105000ADF80600ADF8020069464FF0804000F0A0
:101060005DFF01221146900701F0CFFA0EBD00008E
:10107000000C014010B50446FB48844209D101210F
:10108000880300F09FFD00214FF4804000F09AFD9E
:1010900032E0F648844209D10121480400F09FFD66
:1010A00000214FF4003000F09AFD25E0F048844222
:1010B00009D10121880400F092FD00214FF4802025
:1010C00000F08DFD18E0EB48844209D10121C804ED
:1010D00000F085FD00214FF4002000F080FD0BE0C2
:1010E000E548844208D10121080500F078FD00217F
:1010F0004FF4801000F073FD10BD2DE9F04786B06D
:1011000005460E460024A24600BFA1460027B0892E
:1011100000B100BF2F462C8A4CF6FF700440F088C7
:1011200004432C82AC894EF6F3100440B088318918
:101130000843718908430443AC81AC8A4FF6FF40F1
:101140000440B0890443AC8201A800F0B4FCC64856
:10115000874202D1DDF810A001E0DDF80CA0A889DB
:1011600000F4004040B10AEBCA0000EB0A103168FD
:101170004900B0FBF1F807E00AEBCA0000EB0A10E7
:1011800031688900B0FBF1F86420B8FBF0F004018D
:101190002009642101FB1089A88900F4004040B1B6
:1011A000322000EBC900B0FBF1F000F0070004436F
:1011B00008E0322000EB09106421B0FBF1F000F0F0
:1011C0000F0004432C8106B0BDE8F0874FF41651A0
:1011D000016000218180C18001810C2141810021B9
:1011E0008181704710B502460020108A4FF2FF033C
:1011F00018400B884C8823438C882343CC88234396
:101200001843108210BD0021018041808180C1807F
:10121000704721B1828942F40052828104E08289C0
:101220004DF6FF731A4082817047F0B503460024E3
:1012300000260025002040F66A17B94200D100BF01
:101240001846C1F3421401F01F06012707FA06F5FC
:10125000012C01D10C3004E0022C01D1103000E04F
:1012600014301AB107682F43076002E00768AF43E4
:101270000760F0BD1AB1838A0B43838202E0838A40
:101280008B4383827047028A4FF6F0731A400282C2
:10129000028A0A430282704782894FF2FF731A4022
:1012A000828182890A438281704721B1828942F01A
:1012B0000202828104E082894FF6FD731A40828126
:1012C0007047028A4FF6DF731A400282028A0A438D
:1012D0000282704721B1028A42F48042028204E015
:1012E000028A4BF6FF731A4002827047C1F308026C
:1012F0008280704701468888C0F308007047818962
:1013000041F0010181817047028BD2B20283028BCE
:1013100042EA012202837047028B02F47F42028379
:10132000028B0A430283704721B1828A42F0200275
:10133000828204E0828A4FF6DF731A40828270470D
:1013400021B1828A42F01002828204E0828A4FF642
:10135000EF731A408282704721B1828A42F00802FC
:10136000828204E0828A4FF6F7731A4082827047C5
:1013700021B1828942F40042828103E08289C2F372
:101380000E028281704721B1828A42F40062828219
:1013900004E0828A4FF2FF731A4082827047828A89
:1013A0004FF6FB731A408282828A0A438282704718
:1013B00021B1828A42F00202828204E0828A4FF6E0
:1013C000FD731A408282704702460020B1F5007F0B
:1013D00000D100BF13880B400BB1012000E00020BA
:1013E000704701F40072B2F5007F00D100BFCA431C
:1013F0000280704770B502460024002300250020BB
:1014000040F66A16B14200D100BFC1F3421501F0A7
:101410001F03012606FA03F3012D02D196893340FA
:1014200006E0022D02D1168A334001E0968A33404D
:101430000C12012606FA04F41688344013B10CB1DC
:10144000012000E0002070BD10B50022002340F60E
:101450006A14A14200D100BF0A1201249440A3B231
:10146000DC43048010BD000000380140004400400F
:1014700000480040004C004000500040314901430A
:10148000314A1160704770B5002100230F22C478E3
:1014900004B32D4C246804F4E064C4F5E064210A2C
:1014A000C1F10403CA40447804FA03F1847814407B
:1014B00021430901254C0678A155047804F01F0545
:1014C0000124AC4005786D11AD0005F1E025C5F8AB
:1014D000004109E0047804F01F050124AC401C4DD4
:1014E0000678761145F8264070BD1A4A0A40024334
:1014F000154B1B1F1A60704739B1134A121D126831
:101500000243114B1B1D1A6006E00F4A121D1268A0
:1015100082430D4B1B1D1A607047042808D14FF001
:10152000E021096941F004014FF0E022116107E078
:101530004FF0E021096921F004014FF0E022116130
:10154000704700000000FA050CED00E000E400E048
:1015500080E100E080FFFF1F10B50446CC488442C4
:1015600008D10121042000F02DFB0021042000F00F
:1015700029FB46E0C748844208D10121082000F039
:1015800021FB0021082000F01DFB3AE0C248844204
:1015900008D10121102000F015FB0021102000F0DF
:1015A00011FB2EE0BD48844208D10121202000F02B
:1015B00009FB0021202000F005FB22E0B84884420E
:1015C00008D10121402000F0FDFA0021402000F068
:1015D000F9FA16E0B348844208D10121802000F0D6
:1015E000F1FA0021802000F0EDFA0AE0AE488442D2
:1015F00007D10121801500F0E5FA0021A01500F0C7
:10160000E1FA10BD10B50121084600F0DBFA002117
:10161000012000F0D7FA10BD2DE9F0410246002567
:101620000026002000230024002791F803C00CF0BE
:101630000F0591F803C00CF0100CBCF1000F03D0A3
:1016400091F802C04CEA050591F800C0BCF1000F0A
:1016500031D0146800202BE04FF0010C0CFA00F39D
:10166000B1F800C00CEA03069E4220D183004FF07F
:101670000F0C0CFA03F7BC4305FA03FC4CEA040414
:1016800091F803C0BCF1280F06D14FF0010C0CFA01
:1016900000FCC2F814C00AE091F803C0BCF1480F86
:1016A00005D14FF0010C0CFA00FCC2F810C0401C30
:1016B0000828D1D31460B1F800C0BCF1FF0F34DDAD
:1016C000546800202EE000F1080C4FF0010808FAE1
:1016D0000CF3B1F800C00CEA03069E4221D183004E
:1016E0004FF00F0C0CFA03F7BC4305FA03FC4CEA6D
:1016F000040491F803C0BCF1280F05D100F1080CD7
:1017000008FA0CF8C2F8148091F803C0BCF1480F35
:1017100007D100F1080C4FF0010808FA0CF8C2F8E4
:101720001080401C0828CED35460BDE8F0814FF6ED
:10173000FF710180022181700421C170704702464F
:10174000002093680B400BB1012000E0002070479F
:101750000146886880B2704702460020D3680B407B
:101760000BB1012000E0002070470146C86880B23C
:10177000704701617047416170470AB1016100E043
:1017800041617047C16070474FF480320A43826103
:101790008161826182698269704702460020434B01
:1017A00018684FF68073184040EA021008433F4B18
:1017B000186070473E49C8617047F0B50A4600237B
:1017C00000240021002500F00046B6F1004F02D1B0
:1017D000364EF16901E0354E7168C0F3034583B2BE
:1017E00000F44016B6F5401F08D121F070612F4E6D
:1017F000766826F070662D4F7E6012E000F4801649
:10180000B6F5801F06D1032606FA05F4A14341F080
:10181000706106E0460D360103FA06F6B14341F069
:10182000706122B1460D360103FA06F6314300F02D
:101830000046B6F1004F02D11C4EF16101E01B4E93
:101840007160F0BD30B500228B071C0F0F2303FA27
:1018500004F2164B08338C1053F824309343134C86
:1018600008348D1044F8253023468C1053F824306A
:101870008C07240F00FA04F423430C4C08348D1019
:1018800044F8253030BD0A49DC310860704700005B
:1018900000080140000C014000100140001401400C
:1018A00000180140001C01400020014000000140E0
:1018B00000002042DF48006840F00100DD49086078
:1018C00008464068DC490840DA4948600846006834
:1018D000DA490840D74908600846006820F48020AB
:1018E00008600846406820F4FE0048604FF41F007E
:1018F00088607047CF49096821F48031CD4A116072
:101900001146096821F480211160B0F5803F03D0B1
:10191000B0F5802F0ED106E0C649096841F4803148
:10192000C44A116007E0C349096841F4A021C14AD3
:10193000116000E000BF00BF704710B501460022F3
:10194000002300204A11012A02D1BA4C236806E084
:10195000022A02D1B74C236A01E0B64C636A01F057
:101960001F02012494401C400CB1012000E0002023
:1019700010BD38B5002000900024002500BF3120A4
:10198000FFF7DBFF05460098401C00900098B0F57B
:10199000A06F01D0002DF2D03120FFF7CEFF08B1AB
:1019A000012400E00024204638BD01460020A14A61
:1019B000106820F0F80040EAC10010607047A049AC
:1019C00008607047024600209A4B586820F47C104B
:1019D00042EA01031843974B5860704798490866DC
:1019E000704701460020934A506820F003000843E6
:1019F000506070478F48406800F00C007047014607
:101A000000208C4A506820F0F00008435060704776
:101A100001460020874A506820F4E0600843506087
:101A2000704701460020834A506820F4605040EA25
:101A3000C1005060704729B17E4A527A02437D4B03
:101A40005A7204E07B4A527A82437A4B5A72704748
:101A50007B49D8310860704701460020754A5068BC
:101A600020F440400843506070470021714A203202
:101A70001170704A82F82010012802D004280AD17F
:101A800004E001216B4A2032117005E00521694A0A
:101A90002032117000E000BF00BF70476949086044
:101AA00070476449096A0143624A11627047654997
:101AB00044390860704730B500210022002400231B
:101AC0005C4D6D6805F00C0121B1042905D0082991
:101AD00023D105E05C4D056022E05B4D05601FE011
:101AE000544D6D6805F47012524D6D6805F48034E4
:101AF000022505EB92421CB9544D554305600BE09D
:101B00004C4D6D6805F400351DB1504D55430560D1
:101B100002E04D4D5543056002E04B4D056000BFAE
:101B200000BF444D6D6805F0F0010909484D6B5C3C
:101B30000568DD4045603F4D6D6805F4E061090AC8
:101B4000434D6B5C4568DD4085603A4D6D6805F43A
:101B50006051C90A3E4D6B5C4568DD40C560354D3E
:101B60006D6805F44041890B3A4D6B5CC568B5FB67
:101B7000F3F5056130BD29B12E4A526902432D4B60
:101B80005A6104E02B4A526982432A4B5A617047DA
:101B900029B1284A92690243264B9A6104E0254AFA
:101BA00092698243234B9A61704729B1214AD269D5
:101BB0000243204BDA6104E01E4AD26982431D4B86
:101BC000DA61704729B11B4AD2680243194BDA60C7
:101BD00004E0184AD2688243164BDA60704729B194
:101BE000144A12690243134B1A6104E0114A126944
:101BF0008243104B1A6170471249403908607047A0
:101C00000F49C86470470B49C87170470948406A5A
:101C100040F0807007494862704701460020054A3D
:101C200092680A400AB1012000E000207047014993
:101C300088727047001002400000FFF8FFFFF6FEB8
:101C4000000042428004424200127A0000093D0036
:101C50002501002035010020002044490860091DAD
:101C60000860091D0860091D086041483F4914319A
:101C70000860704700213D498279002A3AD00A461F
:101C8000126803689A430B461A600A1D12680368BB
:101C90009A430B1D1A60027911440A6803681A43BB
:101CA0000A60324A0832126803689A432F4B08339D
:101CB0001A601A1D126803689A432C4B0C331A6081
:101CC0004279102A0ED11A1F126803681A43274B53
:101CD00008331A601A1D126803681A43234B0C3329
:101CE0001A600DE02149427911440A6803681A43D9
:101CF0000A6005E0027911440A6803689A430A60A1
:101D000070470021016001710C2141710021817136
:101D100070471649103109680143144A10321160A6
:101D2000704701460020114A143212680A400AB175
:101D3000012000E0002070470C4914310860704712
:101D4000014600200022094B1B6803EA0102074BF1
:101D500014331B680B4013B10AB1012000E00020CE
:101D600070470249143108607047000000040140C8
:101D7000FFFF0F0010B50446FE48844208D1012140
:101D8000C014FFF71FFF0021E014FFF71BFFC4E0A2
:101D9000B4F1804F08D101210846FFF720FF002150
:101DA0000120FFF71CFFB8E0F348844208D101216D
:101DB0000220FFF714FF00210220FFF710FFACE024
:101DC000EE48844208D101210420FFF708FF0021DA
:101DD0000420FFF704FFA0E0E948844208D1012174
:101DE0000820FFF7FCFE00210820FFF7F8FE94E032
:101DF000E448844208D101211020FFF7F0FE0021C1
:101E00001020FFF7ECFE88E0DF48844208D1012172
:101E10002020FFF7E4FE00212020FFF7E0FE7CE019
:101E2000DA48844208D101214014FFF7CBFE00219B
:101E30006014FFF7C7FE70E0D548844209D1012144
:101E4000C804FFF7BFFE00214FF40020FFF7BAFEE1
:101E500063E0D048844209D101210805FFF7B2FEB2
:101E600000214FF48010FFF7ADFE56E0CA488442CF
:101E700009D101214805FFF7A5FE00214FF400100C
:101E8000FFF7A0FE49E0C548844208D10121402067
:101E9000FFF7A5FE00214020FFF7A1FE3DE0C0486E
:101EA000844208D101218020FFF799FE0021802083
:101EB000FFF795FE31E0BB48844208D1012180152F
:101EC000FFF78DFE0021A015FFF789FE25E0B6483B
:101ED000844209D101210804FFF774FE00214FF468
:101EE0008030FFF76FFE18E0B048844209D101212D
:101EF0004804FFF767FE00214FF40030FFF762FE51
:101F00000BE0AB48844208D101218804FFF75AFE58
:101F100000214FF48020FFF755FE10BD00220288FB
:101F2000944B98420ED0994B98420BD0B0F1804F11
:101F300008D0914B984205D0904B984202D0904BDC
:101F4000984204D14FF68F731A404B881A438D4B39
:101F5000984207D08C4B984204D04FF6FF431A406A
:101F6000CB881A4302808B8883850B880385814B3D
:101F700098420BD0854B984208D08B4B984205D0A5
:101F80008A4B984202D08A4B984201D10B7A038641
:101F900001238382704770B5002400220023058C42
:101FA0004FF6FE7635400584028C8388048B4FF60D
:101FB0008F752C40B51E2C400D882C43751E2A4071
:101FC0000D892A434D882A436A4DA8420BD06F4D94
:101FD000A84208D0744DA84205D0744DA84202D042
:101FE000734DA84213D14FF6F7752A404D892A4305
:101FF0004FF6FB752A408D882A434FF6FF652B402C
:102000004FF6FF552B408D892B43CD892B43838081
:102010000483CD888586028470BD70B500240022BB
:102020000023058C4FF6EF7635400584028C8388BB
:10203000048B48F6FF752C404FF6FF452C400D8869
:102040004FF6FF7606EA05252C434FF6DF752A404A
:102050000D8906EA05152A434D8806EA05152A4327
:10206000444DA84202D0494DA8421DD14FF67F757C
:102070002A404D894FF6FF7606EA05152A434FF6AA
:10208000BF752A408D8806EA05152A434FF6FF35AD
:102090002B404FF2FF752B408D8906EA85052B43B7
:1020A000CD8906EA85052B4383800483CD88058787
:1020B000028470BD70B5002400220023058C4FF609
:1020C000FF6635400584028C8388848B4FF68F75BC
:1020D0002C404FF6FC752C400D882C434FF6FF55D5
:1020E0002A400D894FF6FF7606EA05252A434D88DA
:1020F00006EA05252A431F4DA84202D0234DA842D7
:102100001DD14FF2FF752A404D894FF6FF7606EA42
:1021100005252A434FF6FF352A408D8806EA052516
:102120002A434EF6FF752B404DF6FF752B408D89E7
:1021300006EA05152B43CD8906EA05152B43838056
:102140008483CD888587028470BD70B5002200230A
:102150000024058C4EF6FF7635400584038C848878
:10216000828B48F6FF752A404FF6FF452A400D88BE
:1021700020E00000002C0140000400400008004066
:10218000000C0040001000400014004000340140EA
:10219000004C014000500140005401400018004034
:1021A000001C00400020004000400140004401406D
:1021B000004801404FF6FF7606EA05252A434DF612
:1021C000FF752B400D8906EA05352B434D8806EA3D
:1021D00005352B43FA4DA84202D0FA4DA84208D14A
:1021E0004BF6FF752C408D894FF6FF7606EA851574
:1021F0002C4384808283CD88A0F84050038470BD36
:10220000828B4FF2FF331A408283828B4FF6FF732B
:1022100003EA01231A4382837047F0B50C46154642
:10222000002200210026078C4EF6FF7C07EA0C07EF
:102230000784828B018C4FF6FF7707EA043640F65D
:10224000FF473A404FF6FF7707EA05273A434FF634
:10225000FF7707EA03373A43D94FB8420ED0D94F38
:10226000B8420BD0B0F1804F08D0D74FB84205D05C
:10227000D64FB84202D0D64FB84206D14DF6FF77BE
:10228000394046F48057394305E047F6FF57394057
:1022900044F48057394382830184F0BD828B4FF62A
:1022A000F3731A408283828B0A4382837047F0B5AE
:1022B0000C461546002200210026078C4FF6FF6CC5
:1022C00007EA0C070784828B018C4FF6FF7707EA39
:1022D00004264FF60C773A404FF6FF7707EA0317CC
:1022E0002F433A43B64FB8420ED0B64FB8420BD048
:1022F000B0F1804F08D0B44FB84205D0B34FB842C8
:1023000002D0B34FB84206D14FF6FF57394046F4DA
:102310008077394305E04FF2FF57394044F4807726
:10232000394382830184F0BD028B4FF2FF331A40A0
:102330000283028B4FF6FF7303EA01231A430283E1
:102340007047F0B50C461546002200210026078C88
:102350004FF6EF7C07EA0C070784028B018C4FF6DF
:10236000FF7707EA041640F6FF473A404FF6FF773B
:1023700007EA03373A434FF6FF7707EA05273A4360
:102380008F4FB8420ED08F4FB8420BD0B0F1804F74
:1023900008D08D4FB84205D08C4FB84202D08C4F38
:1023A000B84206D14FF6DF77394046F0100739437F
:1023B00005E04FF65F77394044F010073943028358
:1023C0000184F0BD028B4FF6F3731A400283028B37
:1023D0000A4302837047F0B50C46154600220021DF
:1023E000068C4FF6FE773E400684028B018C4FF63A
:1023F0000C7632407E1C06EA03162E433243704EA2
:10240000B0420ED06F4EB0420BD0B0F1804F08D02A
:102410006D4EB04205D06D4EB04202D06C4EB0420F
:1024200006D14FF6FD76314044F00106314305E018
:102430004FF6F576314044F00106314302830184C2
:10244000F0BD70B505460C465D4885420ED05D482E
:1024500085420BD0B5F1804F08D05B48854205D04E
:102460005A48854202D05A48854200D100E000BF58
:10247000208850B92389A28861882846FFF7ABFFDE
:10248000E1882846FFF79EFF25E0208804280AD12E
:102490002389A28861882846FFF753FFE1882846F0
:1024A000FFF742FF17E0208808280AD12389A28875
:1024B00061882846FFF7FBFEE1882846FFF7EEFE1D
:1024C00009E02389A28861882846FFF7A6FEE188F3
:1024D0002846FFF795FE70BD2DE9F04105460C46F4
:1024E00000260127608808B9022600E00026A0889F
:1024F000012801D1022700E001272088A0B9238903
:10250000A28861882846FFF766FFE1882846FFF722
:1025100059FF23893A4631462846FFF712FFE188E2
:102520002846FFF701FF13E02389A2886188284627
:10253000FFF707FFE1882846FFF7F6FE23893A46B2
:1025400031462846FFF747FFE1882846FFF73AFF64
:10255000BDE8F0810A884B881A438B881A43CB88E0
:102560001A430B891A434B891A438B891A43A0F8E3
:10257000442070474FF6FF71818000210180C180A7
:102580004180017270470021018041808180C180BB
:10259000018141818181C181704700210180418099
:1025A000012181800021C1800181704700210180CB
:1025B00041808180C180018141818181704700001B
:1025C000002C01400034014000040040000800409D
:1025D000000C004021B1028842F00102028004E0B8
:1025E00002884FF6FE731A400280704731B1B0F88E
:1025F000442042F40042A0F8442005E0B0F8442012
:10260000C2F30E02A0F8442070471AB183890B432D
:10261000838102E083898B43838170478182704785
:1026200041EA0203A0F8483070471AB183890B438E
:10263000838102E083898B438381704701894FF650
:10264000F8721140018170470A46002101894FF656
:102650008F73194011430181704730B504460D4610
:1026600029462046FFF7F0FF208940F0070020812F
:1026700030BD2DE9F04104460D4616461F46602D3B
:1026800006D13B46012231462046FFF75AFE05E0BF
:102690003B46012231462046FFF79DFE2946204653
:1026A000FFF7D2FF208940F007002081BDE8F081CC
:1026B00030B50C4600210189C9B24FF6FF7505EA15
:1026C0000325154325432943018130BD2DE9F04100
:1026D00005460E4617469846002443463A4631467C
:1026E0002846FFF7E5FF2C894FF6F870044044F0C8
:1026F00007044FF68F70044044F070042C81BDE84D
:10270000F081F0B504460D4616461F463B4632465C
:1027100029462046FFF7CCFF208940F480402081E5
:10272000F0BD0185828270470A46002101884FF67C
:102730008F731940114301807047F0B50C46154660
:102740001E460021002200230189028B038C4FF6D4
:10275000F877394021434FF6FC473A4040F20117E1
:102760003A434FF6DD773B404FF6FF7707EA06170F
:102770002F433B43018102830384F0BD0A460021BD
:10278000018B4FF68F7319401143018370470A463E
:102790000021018B48F6FF7319404FF6FF7303EADF
:1027A00002231943018370470A460021818B4FF6AB
:1027B0008F7319401143818370470A460021818B32
:1027C00048F6FF7319404FF6FF7303EA02231943DB
:1027D0008183704721B1028842F08002028004E0C8
:1027E00002884FF67F731A400280704721B18288B9
:1027F00042F00402828004E082884FF6FB731A40A4
:102800008280704721B1828842F00802828004E011
:1028100082884FF6F7731A408280704721B1828810
:1028200042F00102828004E082884FF6FE731A4073
:10283000828070470A460021018B4FF6F7731940DA
:102840001143018370470A460021018B4FF2FF7349
:1028500019404FF6FF7303EA0223194301837047BF
:102860000A460021818B4FF6F7731940114381838B
:1028700070470A460021818B4FF2FF7319404FF6D3
:10288000FF7303EA02231943818370470A4600213C
:10289000018B4FF6FB7319401143018370470A46C1
:1028A0000021018B4FF6FF3319404FF6FF7303EA07
:1028B00002231943018370470A460021818B4FF69A
:1028C000FB7319401143818370470A460021818BB5
:1028D0004FF6FF3319404FF6FF7303EA0223194303
:1028E000818370470A460021018B4FF67F731940A0
:1028F0001143018370470A460021018BC1F30E0189
:102900004FF6FF7303EA02231943018370470A4617
:102910000021818B4FF67F731940114381837047EB
:102920000A460021818BC1F30E014FF6FF7303EAC3
:1029300002231943818370470A460021018C4FF618
:10294000FD7319401143018470470A460021018C30
:102950004FF6F77319401143018470470A4600216E
:10296000018C4FF6DF7319404FF6FF7303EA021331
:102970001943018470470A460021018C4FF67F738A
:1029800019404FF6FF7303EA02131943018470479D
:102990000A460021018C4FF6FF5319404FF6FF7392
:1029A00003EA02231943018470470A460021018C7F
:1029B0004FF2FF7319404FF6FF7303EA02231943E6
:1029C000018470470A460021018C4DF6FF731940BF
:1029D0004FF6FF7303EA023319430184704730B5A1
:1029E000002301248C40A3B2048C9C430484048CF7
:1029F00002FA01F5ADB22C43048430BD30B500239A
:102A000004248C40A3B2048C9C430484048C02FAFA
:102A100001F5ADB22C43048430BD70B503460020EF
:102A200000241846183001258D40ACB21D8CA543FA
:102A30001D8409B1082909D100EB6100056825F062
:102A4000700505600568154305600EE00D1FC5F3B0
:102A50004E052844056825F4E045056005684FF6F5
:102A6000FF7606EA02263543056070BD21B1028873
:102A700042F00202028004E002884FF6FD731A4021
:102A80000280704721B1028842F00402028004E013
:102A900002884FF6FB731A400280704721B182888A
:102AA00042F08002828004E082884FF67F731A40F1
:102AB0008280704702884FF6F7731A4002800288BE
:102AC0000A430280704782884FF68F731A408280D3
:102AD00082880A438280704702894FF6F8731A4051
:102AE000028102890A430281704702894FF67F738F
:102AF0001A40028102890A4302817047818470472B
:102B0000818570478186704701877047818770474C
:102B1000A0F84010704702884FF6FF431A40028029
:102B200002880A43028070470146888E704701463A
:102B3000088F70470146888F70470146B1F8400002
:102B400070470146888C70470146088D70470246E1
:102B50000020138A0B400BB1012000E000207047D9
:102B6000CA430282704730B5024600200023002489
:102B7000158A05EA0103958905EA010413B10CB130
:102B8000012000E0002030BDCA43028270470000EF
:102B90000E49086070470D49486070470B498860CE
:102BA00070474AF6AA200949086070474CF6CC40A5
:102BB00006490860704701460020044AD2680A406E
:102BC0000AB1012000E00020704700000030004002
:102BD00001684FF6FE721140016000210160416002
:102BE0008160C1608D49884208D18C4908394968A3
:102BF00041F00F01894A083A51608AE0874914314F
:102C0000884208D185490839496841F0F001834A72
:102C1000083A51607DE081492831884208D17F49D6
:102C20000839496841F470617C4A083A516070E0A3
:102C30007A493C31884208D178490839496841F4D9
:102C40007041764A083A516063E0744950318842D5
:102C500008D172490839496841F470216F4A083A2D
:102C6000516056E06D496431884208D16B4908399A
:102C7000496841F47001694A083A516049E067497E
:102C80007831884208D165490839496841F0706156
:102C9000624A083A51603CE06149884206D1011F0E
:102CA000096841F00F01021F116032E05C491431E4
:102CB000884208D15A49091F096841F0F001584A71
:102CC000121F116025E056492831884208D1544925
:102CD000091F096841F47061514A121F116018E020
:102CE0004F493C31884208D14D49091F096841F4D8
:102CF00070414B4A121F11600BE049495031884224
:102D000007D14749091F096841F47021444A121F3D
:102D10001160704710B50022026847F6F0739A43BD
:102D20000C6A8B6823430C6923434C6923438C69E9
:102D30002343CC6923434C6A23438C6A23431A43BD
:102D40000260CB6843600B6883604B68C36010BD52
:102D50000021016041608160C16001614161816168
:102D6000C161016241628162704721B1026842F033
:102D70000102026004E002684FF6FE731A4002602E
:102D800070471AB103680B43036002E003688B438A
:102D900003607047416070470146486880B27047E1
:102DA00001460020002201F080531BB11C4B083B60
:102DB0001A6802E0194B083B1A6802EA01030BB1DA
:102DC000012000E00020704700F0805119B1144943
:102DD000091F086002E01149083948607047014640
:102DE0000020002201F080531BB10D4B083B1A68F4
:102DF00002E00A4B083B1A6802EA01030BB101200A
:102E000000E00020704700F0805119B10449091F0B
:102E1000086002E001490839486070470800024034
:102E2000080402400648804706480047FEE7FEE7E0
:102E3000FEE7FEE7FEE7FEE7FEE7FEE7FEE7FEE76A
:102E4000DF020008ED00000840EA01039B0703D001
:102E500009E008C9121F08C0042AFAD203E011F8D9
:102E6000013B00F8013B521EF9D270472DE9F05F9B
:102E70000546002092469B468846064681464024E9
:102E80001BE0284641464746224600F042F853469A
:102E90005A46C01A914110D311461846224600F0F6
:102EA00029F82D1A67EB01084F4622460120002120
:102EB00000F020F817EB00094E41201EA4F1010498
:102EC000DFDC484631462A464346BDE8F09F000015
:102ED000064C074D06E0E06840F0010394E8070067
:102EE00098471034AC42F6D3FDF704F930340008AB
:102EF00050340008202A04DB203A00FA02F10020B6
:102F000070479140C2F1200320FA03F31943904027
:102F10007047202A04DB203A21FA02F00021704792
:102F200021FA02F3D040C2F1200291400843194631
:102F3000704770B58C1810F8015B15F0070301D1CC
:102F400010F8013B2A1106D110F8012B03E010F80C
:102F5000016B01F8016B5B1EF9D12B0705D400232F
:102F6000521E0DD401F8013BFAE710F8013BCB1AD1
:102F7000921C03E013F8015B01F8015B521EF9D5C6
:102F8000A142D8D3002070BD0FB4054B10B503A9E2
:102F9000044A029800F018F810BC5DF814FB000019
:102FA000DF0700083C01002002E008C8121F08C12A
:102FB000002AFAD170477047002001E001C1121FBA
:102FC000002AFBD1704700002DE9FF4F8DB00F465E
:102FD0000546002606E025280BD0DDE90F129047B4
:102FE0006D1C761C28780028F5D111B03046BDE85C
:102FF000F08F0024A246A1460122E94900E00443E3
:1030000015F8013F203B02FA03F00842F7D1287877
:103010002A2810D06FF02F022878A0F1300109295A
:1030200014D80AEB8A0102EB410144F0020400EBE0
:10303000010A6D1CF0E701CF5FEA000A03D544F4F2
:103040000054CAF1000A44F002046D1C28782E28AE
:1030500017D115F8010F44F004042A280ED06FF0A0
:103060002F022878A0F1300109290AD809EB89013B
:1030700002EB410100EB01096D1CF2E757F8049BDC
:103080006D1C28786C280FD006DC4C2817D06828D7
:103090000DD06A2814D104E0742810D07A280FD1FA
:1030A0000DE044F400140AE044F4801401E044F418
:1030B00040146978814202D104F580146D1C6D1CA6
:1030C00028786E281ED00CDC632830D004DC002861
:1030D0008BD0582811D19FE0642867D069280CD183
:1030E00064E073282DD004DC6F2872D0702804D1DE
:1030F00094E075286ED078286DD0DDE90F129047E6
:10310000761C4BE1C4F30250022806D0032809D0F4
:10311000042801CF09D0066040E101CFF117C0E9D2
:1031200000613BE101CF068038E1067036E117F817
:10313000040B8DF8000000208DF80100EB46012003
:1031400003E057F804BB4FF0FF3061074FF0000178
:1031500002D40DE008F10101884649450FDA8045A7
:10316000F8DB1BF808100029F4D108E008F1010190
:1031700088468142FADB1BF808100029F6D1DDE908
:103180000F23AAEB08008146214600F031F93044B4
:1031900000EB080604E0DDE90F121BF8010B904775
:1031A000B8F10108F7D221464846F2E00A21C4F3FB
:1031B00002524FF0000B0891022A04D001CFC11730
:1031C000032A09D00AE0FF1D27F00707F7E80201EC
:1031D00008E02CE01EE01FE000B2C117042A01D174
:1031E00040B2C117021E71F1000206DA0023D0EBD3
:1031F000030063EB01012D2202E0220504D52B22FE
:103200008DF82420012203E0E20701D02022F7E715
:10321000904653E00A210BE0102109E010214FF005
:10322000000B44F004044FF00809089103E0082162
:103230004FF0000B0891C4F30252022A04D001CFD0
:103240000021032A06D006E0FF1D27F00707F7E854
:10325000020103E080B2042A00D1C0B24FF000089E
:1032600022072BD52A78702A07D0DDF820C08CF0F1
:10327000100C5CEA0B0C05D00EE040228DF82420E7
:10328000012208E050EA010306D030238DF82430F3
:103290008DF8252002229046089B83F0080353EA0C
:1032A0000B030BD150EA010201D1620706D530228F
:1032B0008DF824204FF00108A9F101092A78582A35
:1032C00004D038A20B9208AA0A920BE03AA2F9E7BE
:1032D0005B46089AFFF7CAFD0B9B9B5C0A9A521E3D
:1032E0000A92137050EA0102F2D10A98ADEB000085
:1032F00000F1200B600702D524F4803401E04FF088
:103300000109D94502DDA9EB0B0000E0002000EB2C
:103310000B0141440890AAEB010AE00306D4DDE961
:103320000F232146504600F063F806444FF0000991
:1033300008E009A911F80900DDE90F12904709F129
:103340000109761CC145F4DBE0030CD5DDE90F2350
:103350002146504600F04CF8064404E0DDE90F1227
:1033600030209047761C0899481E08900029F5DC0B
:1033700008E00A980A990078491C0A91DDE90F12C1
:103380009047761CBBF10001ABF1010BF1DC21464B
:103390005046DDE90F2300F019F806446D1C21E6C4
:1033A000092801003031323334353637383961621B
:1033B00063646566000000003031323334353637DF
:1033C0003839414243444546000000002DE9F041B0
:1033D000044600251E461746880404D405E03946F5
:1033E0002020B0476D1C641EF9D52846BDE8F08149
:1033F0002DE9F041044600251E469046C80301D53C
:10340000302700E02027880404D505E041463846EF
:10341000B0476D1C641EF9D52846BDE8F081001048
:1034200020300818283801020408102040800000CD
:10343000503400080000002040010000322F000836
:103440000C3500084001002080070000B82F00085C
:10345000100948656C6C6F21210A02172184A24A69
:1034600004180901020304060708090A11D205100D
:1034700008AA55011101030C4C01FFFF1A100F039C
:10348000AE33C7D00D0AAA55031B010316600C0802
:103490000C85035C03580356A0AB1303E82D01E22F
:1034A000ABA722250605EF018BEFE92E11A8090A2B
:1034B0008003BC03B403AC2E3CD209F82E2F04EFDA
:1034C0000401EFEC0B1139738A64732CDC0A1E18AB
:1034D0000A10028B2AD1183A043B2AEA0B3A050B50
:1034E0002AEB0B3A070B1008ED0D0A18220C0B2FD4
:1034F000EFEF03FF03E3062B01E106AB02E2FD2938
:0C35000004700906070809020406080010
:04000005080000ED02
:00000001FF
